:020000040000FA
:0600000002106402063547
:03002B00020E2F93
:03003300020800C0
:03004300020CDFCD
:0300530002056A39
:03006B0002084543
:03007B0002082B4D
:100083000205C9010000000000F8FF07FFFF0000A0
:10009300050400000003000147726F757000FF0440
:1000A3000010800000002801000038AD0B00100094
:1000B3000080110018000020FD000206FFFFFFFF73
:1000C3001E010E1A0000381A000000000000000094
:1000D300000000000000000000001020202020206D
:1000E30020202020202020202020200101040100A6
:1000F30001010679BA017EBB010400006416000009
:1001030000E8030000FFFFB5160188130000E803B1
:10011300000064006400B801A0BB0D00A0BB0D008B
:10012300020202070401051E02051E020A0A01015A
:1001330008080103B80B02803E0102FEFFE8030A30
:10014300050001FFFF020A011401E002000000059F
:10015300030101FF0F872C000000005B2B00000050
:1001630000FF000000FF00121074601D1210837066
:1001730005191919801A120F2B701F120F17C3704C
:1001830003E66733191919400718181822080808D5
:1001930074FFF618F618F618F622120F17601712E6
:1001A3001111702192F012111A7019501720F014C6
:1001B300080808090909E7F61819E7F61819E7F610
:1001C3001819E7F62212111A60E6E869701F080889
:1001D300E62480F608E436F618547FB47F0CE65420
:1001E300806007F6E418F618F622181822E9C6CC40
:1001F30008C6CD08C6CE08C6CFC0E0E8C0E0EAC056
:10020300E0EBC0E009E9F809E7FA09E7FBE6F918CA
:10021300E6F8C3EC98ED99EE9AEBC2E7F5F0EFC27E
:10022300E795F0500E600CEBCFFBEACEFAE9CDF97F
:10023300E8CCF8EAA2E7D2E7FAEB33FB13F5F0EEEA
:10024300A2E7D2E7FEEF33FFC5F013A2E730E601E2
:10025300B313C5F0C3C0E0C0F07F00C39BFB605E77
:100263009418600F401D14601AD0E023F9D0E0F811
:1002730002034B8AF0E9486003D2F0E4AFF0FAF9E5
:10028300F8803BEB30E40D89F0EA6003D2F0E4AF91
:10029300F0F9CAF8EB30E30D88F0EF6002D2F0AF6B
:1002A300F0E4CAC9F8EB54076014FBC3EA13FAE994
:1002B30013F9E813F8EF135002D2E0FFDBEDD0E0BF
:1002C300C0E030E739C3E49FFFF5F0EC98FC42F05F
:1002D300ED99FD42F0EE9AFE42F0D0E0F9D0E0F85D
:1002E300E5F0607AE923F9EE20E742D8028067C39C
:1002F300EF33FFEC33FCED33FDEE33FE80EAEC2805
:10030300FCED39FDEE3AFED0E023F9D0E0F84002EF
:10031300801BC3EE13FEED13FDEC13FCEF13500231
:10032300D2E0FF08B800067F7F74FF802EEF3350C2
:10033300178CF020F00260100CBC000C0DBD0008FF
:100343000EBE000408E860DFE933E813FFEE231371
:10035300FE4F4D4C8008E95480FFE4FEFDFCEE3374
:10036300EF33F47004FCFD7E80D0E0FBD0E0FAD0E4
:10037300E0F8D0E0CFC618CEC618CDC618CCC6F963
:1003830022121074700418181822121083700D743E
:10039300FFF61819F61819F61819F622E7548066AD
:1003A300F612111A700F12111170F014F608F608F4
:1003B300F608F680D1121111700CF608F608768053
:1003C30008E6447F80EC120F1A700C120F2E60BFE8
:1003D300E65480F6E480BB120F2E700519191980BC
:1003E300A5E869700C763F18768018F618F6E8F9D8
:1003F30022E6CDC0E018ECC0E0E633CD33CDD31315
:10040300F6E719FCE7191933CC33C3947F400ECDBB
:100413009D502408E65480F6E418F6800FF4043D5A
:1004230014501408E6447FF6187680E418F618F69C
:10043300D0E0FCD0E0FD22CCD313CCFD18E4C6CB36
:10044300C0E018E4C6CAC0E00808ED08C633E613E6
:10045300F618E433C675F003C3CA97CA09CB97CB22
:10046300199C40047D08802EBD000302052D16B69D
:10047300FF050606081618C3CA33CACB33CB33CAE3
:1004830027CA09CB37CB193CC37D08803E187D08AA
:1004930020E75CC633C6CA33CACB33CB33DDF1D5D1
:1004A300F0EB30E77BCA97CA09CB974ACB199C403C
:1004B3006F4B7025E620E0218066187D08C3CA973C
:1004C300CA09CB97CB199CD3C633C6CA33CACB331D
:1004D300CB3350C9DDE7D5F0E1D3E4C636C608C651
:1004E30036C608C636C608C636C61818188031C3BD
:1004F300CA97CA09CB97CB199CB34097C633C6CAD0
:1005030033CACB33CB33DD34D5F02EC6A2E0C6409D
:10051300C8CA27CA09CB37194A70BECB3CB480B9C5
:100523000808E63308E633601F181818D0E0FAD03D
:10053300E0FBD0E0FCD0E0FD22187D08CA27CA0901
:10054300CB37CB193CD3808013F618E4B67F11F672
:1005530018B6FF0EF618C60470D20808768080CA53
:10056300F618F618F680C5C0E074F112095AA2AF66
:10057300E433F509D2AF85A708AFA1EF5508FE74A0
:10058300105E60061213BA75A1EF74085E6008125C
:1005930013C075A1F78024EFA2E092F0E508A2E072
:1005A30082F05017906198E0F89008CFE0C398A2CA
:1005B300D265D0335002E8F075A1FEE509A2E092BE
:1005C300AF7F02020A16C0E074F212095AA2AFE426
:1005D30033FED2AF9061A4E0F8759B00E5915854C7
:1005E3000860087591F712140E8023E59158541092
:1005F30060087591EF1214148014E591A2E092F053
:10060300E8A2E082F05007E0C2E0F012155E9061CC
:10061300A3E0F8E5E9585404600E12153475E9FBBC
:10062300906193E0A2E640F2EEA2E092AF7F010276
:100633000A16C0E074F212095AA2AFE433FED2AF35
:100643009061A5E0F8E5BF585404600675BFFB123E
:10065300157680D4C3E498F8E499F91206988026B5
:10066300C3E49AFAE49BFBE920E7E9120698E498CD
:10067300F8E499F922C3E498F8E499F9120698E4A6
:1006830098F8E499F9C3E49AFAE49BFB22EB20E798
:10069300CFE920E7E0B90010BB0008E88AF084F84E
:1006A300AAF022E4FBC8FA22EB70227B10C833C8FD
:1006B300C933C9335007C39AC3DBF280069A50018A
:1006C3002ADBEAC833F4C8C933F4C9FA2275F0083F
:1006D300E4C833C8C933C933C99AC99B5004C92A6A
:1006E300C93BD5F0ECFBC833F4C8E4C9FA221207BE
:1006F3003120F01430E72B74FFFCFBFA747F802267
:10070300E4FCFBFA7480801AB48008BC00F2BB00DE
:10071300EF800F50EBF9E4C39AFAE49BFBE49CFCF3
:10072300E499C6CC18C6CB18C6CA18C6F922E4C9C0
:10073300C608CAC608CBC6D3330308CCC63392F067
:10074300C3947F402E94184019C9B90704CACBCC6F
:10075300225025C309CA33CACB33CBCC33CC33D9CC
:10076300F422F4600DC9CCC313CB13CBCA13CAD97B
:10077300F6CC22E4FCFBFA2214FCFBFA220808085C
:10078300EAC0E0EBC0E086F0E7A4FA180986F0E7D8
:10079300A42AFA180986F0E7A42AFA180986F0E7CA
:1007A300A42AFA1986F0E7A4FBE5F02AFA190886C9
:1007B300F0E7A42BFBE5F03AFA190886F0E7A42B3F
:1007C300FBE5F03AFA18180986F0E7A4C5F02BFB0D
:1007D300E43AFA1908E7C5F0C6A426F6E5F03BFBB0
:1007E300E43AFA1886F0E7A4F6E5F00826F6E43BC7
:1007F30008F6E43A08F6D0E0FBD0E0FA22C0E07451
:10080300F212095A120870E58B600EA2A0400A1278
:100813001A627AC57BBA1211B0758BFEC2E8EEA2DA
:10082300E092AF7F01020A16C0E074F212095A1275
:10083300086A6007A293400312085F758AF7C2EB48
:1008430080DCC0E074F212095A12086A6007A293AE
:10085300400312085F758AF7C2C580C2121A627A12
:10086300AD7BBA1211B022120870E58A227A147B8A
:1008730000121A5CA2AFE433FED2AF22E4CFC0E091
:10088300E4CEC0E0E4CDC0E0E4CCC0E075F020E607
:1008930026F608E633F608E633F608E633F61818C4
:1008A30018EC33FCED33FDEE33FEEF33FFC3EC976F
:1008B30009ED9709EE9709EF97191919400FFFEC06
:1008C30097FC09ED97FD09EE97FE191906D5F0BFC0
:1008D300ECF709EDF709EEF709EFF7191919D0E06D
:1008E300FCD0E0FDD0E0FED0E0FF222518C582C099
:1008F300E0E51934FFC583C0E0E518C3958224F809
:1009030010AF08858319858218800885831985822D
:1009130018D2AFCEF0A3E520F0A37808E608F0A341
:10092300DEFAEFF0A3E58124FAF8E608F0A3E6087F
:10093300F0A3E608F0A30808E608F0A3E608F0A38E
:1009430015811581D0E0FED0E0F815811581158160
:10095300E8C0E0EEC0E022C0D02518C582C0E0E5C3
:100963001934FFC583C0E0E518C3958224F310AFA3
:10097300088583198582188008858319858218D292
:10098300AFC8F0A3E9F0A3EAF0A3EBF0A37908E77B
:1009930009F0A3D8FAECF0A3EDF0A3EEF0A3EFF087
:1009A300A3D0E0F0A3D0E0F0A3D0E0F0A3E520F0E3
:1009B300A3E5F0F0A322E9799EC608CAC608CBC610
:1009C30008CCC6C370207996CACBCC7019798ECB6C
:1009D300CC70137986CC700EF9802ACA33CACB3314
:1009E300CBCC33CC331930E7F2CCCBCA33501470B1
:1009F30004EA30E00DE4CA3ACACB3BCBCC3CCC5042
:100A03000209C3E913C6CC182313C6CB18C6CA18E8
:100A1300C6F922851983851882E0C0E0A3E0F9A313
:100A2300E0FAA3E0FBA37808E0F608A3DFFAE0FC12
:100A3300A3E0FDA3E0FEA3E0FFA3E0C0E0A3E0C0CA
:100A4300E0A3E0F5D0A3E0F520A3E0A3F5F010AF19
:100A5300088583198582188008858319858218D2B1
:100A6300AFD082D083D0E0F8D0E0321210FCB900CE
:100A730003020AADE4900401785479168002F0A3CE
:100A8300D8FCD9FA7A547B1990008678E5790180ED
:100A930015E493A3AD82AE838A828B83F0A3AA82EB
:100AA300AB838D828E83D8E9D9E77582047583FE83
:100AB3007401120DA27582AE7583287400120DA203
:100AC300FF75F0108E1A8F1B85821F85831E851874
:100AD30082851983E0CEA3E0CF851F82851E83EB39
:100AE300C9EAC8EDCBECCAC3E833C8E933C9EA3372
:100AF300CAEB33CBC3EA9EF51DEB9FF51CB3500441
:100B0300AB1CAA1DEC33CCED33CDD5F0DAAE1AAF66
:100B13001B22D083D082ECC0E0EDC0E0E493A3FCC1
:100B2300E493A3FDED4C600D120BEDEC24FFFCED03
:100B330034FFFD80EFE493A3FCE493A3FDED4C604D
:100B43000D120C8AEC24FFFCED34FFFD80EFD0E0A6
:100B5300FDD0E0FCE493A3C0E0E493C0E022851958
:100B630083851882E0A3FEE0A3F5207808E0A3F6CE
:100B730008DFFAE0A3FFE0A3C0E0E0A3C0E0E0A346
:100B8300C0E0E0A3C0E0E0A3C0E010AF0885821896
:100B93008583198008858218858319D2AFD083D0C5
:100BA30082020DA8D083D082E9C0E0E493A3C38678
:100BB300F0C5F095F0F908E493A386F0C5F095F03D
:100BC300700BE493A3C3994005E9048002A3E47581
:100BD300F002A42582F582E5F03583F583D0E0F9B0
:100BE300E493A3C0E0E493C0E022C0E0C3E493969F
:100BF300087401939618400FE49366700808740113
:100C030093661870007019A3A3C3E4939608740144
:100C1300939618A3A3400DD0E0D0E0D0E0020B518F
:100C2300A3A3A3A3A3A3D0E022740480047402802B
:100C330000CCC0E0EDC0E0E518C39CCCAD19500179
:100C43001D10AF068C188D1980068C188D19D2AF24
:100C5300120D24D0E0FDD0E0FC2274028000CCC051
:100C6300E0EDC0E0E518C39CCCAD1950011D10AFF9
:100C7300068C188D1980068C188D19D2AF120D02AF
:100C8300D0E0FDD0E0FC22C0E0C0F088F0E4936641
:100C930070080874019366187000A8F0A3A3700B82
:100CA300D0F0D0E0D0E0D0E0020B51A3A3D0F0D03D
:100CB300E022D083D082CCC0E0E493A36006120D7F
:100CC300831470FAE493A36006120EC21470FAD070
:100CD300E0FCE493A3C0E0E493C0E022C0E074F23C
:100CE30012095AA2AFE433FED2AFC2C0E5D1A2E4E7
:100CF3005003121336EEA2E092AF7F01020A16CA26
:100D0300C0E0E493A3C582CCC582C583CDC583F07F
:100D1300A3C582CCC582C583CDC583DAE5D0E0CA3D
:100D230022CAC0E0E0A3C582CCC582C583CDC583FA
:100D3300F0A3C582CCC582C583CDC583DAE6D0E0F6
:100D4300CA227009080808226016181818C6C33387
:100D5300C608C633C608C633C608C633C6D5E0EAD6
:100D630022C008C3E096F50808A3E096420808A34A
:100D7300E096420808A3E09645087001D3D0082204
:100D8300C0E0E493A3D39C5010E493A3C39C400A14
:100D9300D0E0D0E0D0E0020CD2A3A3A3D0E022C0E5
:100DA3009FF59FE473D09F22D083D082C09FE493AA
:100DB300C0E0740193C0E0740293F59F22C58225BD
:100DC30018C582C583351910AF07F51985821880B8
:100DD30007F519858218D2AFC5832200C0D0251824
:100DE30010AF08F518500C05198008F518500205C6
:100DF30019D2AFD0D0227404800A7403800674021F
:100E030080027401C0E0F404120E14D0E01210BF8B
:100E1300222518F58210AF08F518400C1519800823
:100E2300F51840021519D2AF85198322C0E0C0D04E
:100E3300E8C0E0A8A8D2AFC2C7E8A2E792AFD0E06B
:100E4300F8D0D0D0E032BB0102E722C082C0838950
:100E5300828A83BB0003E08002E493D083D08222A2
:100E63006016080808C6C313C618C613C618C613E7
:100E7300C618C613C6D5E0EA222518F8E43519F9D1
:100E8300222518FAE43519FB222518FCE43519FD4F
:100E930022C3E0C696F608A3E0C696F608A3E0C60A
:100EA30096F608A3E0C696F622251810AF08F518A3
:100EB300400C15198008F51840021519D2AF22C04D
:100EC300E0E493A36C7009D0E0D0E0D0E0020CD250
:100ED300A3A3D0E022E066701008A3E066700A08BE
:100EE300A3E066700408A3E06622E76670100809B1
:100EF300E766700A0809E76670040809E76622C313
:100F0300E09608A3E09608A3E09608A3E096A2D291
:100F130065D03322191919E70947097009E7270929
:100F23007005E733F4220922181818E608460870FA
:100F330009E626087005E633F4220822C3E49396F3
:100F43000874019396087402939608740393962287
:100F5300C3E096F008A3E096F008A3E096F008A398
:100F6300E096F022C3E697F60809E697F60809E645
:100F730097F60809E697F622E026F608A3E036F688
:100F830008A3E036F608A3E036F622700422600DCB
:100F930018C6C333C608C633C6D5E0F41822E657CD
:100FA300F60809E657F60809E657F60809E657F67C
:100FB30022E056F608A3E056F608A3E056F608A387
:100FC300E056F622E056F008A3E056F008A3E056F8
:100FD300F008A3E056F022E627F60809E637F608FC
:100FE30009E637F60809E637F622E026F008A3E01B
:100FF30036F008A3E036F008A3E036F022E647F621
:101003000809E647F60809E647F60809E647F6221F
:10101300E4C396F608E496F608E496F608E496F632
:1010230022600D08C6A2E713C618C613C6D5E0F39F
:1010330022C3E7960809E7960809E7960809E796A1
:1010430022C6F4C608C6F4C608C6F4C608C6F4C663
:1010530022C3E09608A3E09608A3E09608A3E096CF
:101063002275D00075813F75180175190400020AB5
:101073006EE6084608C3134608336002E633F422DB
:10108300E7094709C3134709336002E733F42260D2
:101093000C08C6C313C618C613C6D5E0F422E6F07F
:1010A30008A3E6F008A3E6F008A3E6F022E0F608BA
:1010B300A3E0F608A3E0F608A3E0F622CAC0E0E640
:1010C300F0A308DAFAD0E0FA22E0FAA3E0FBA3E007
:1010D300FCA3E0FD22EAF0A3EBF0A3ECF0A3EDF018
:1010E30022E0F8A3E0F9A3E0FAA3E0FB22E8F0A3EF
:1010F300E9F0A3EAF0A3EBF022E5C754F84401F5C5
:10110300C77901222518F582E43519F58322E727EB
:1011130019471947194722E6261846184618462242
:10112300C2AF75D69F02000022120DAB69A804124C
:101133000DABEEA804120DAB3AA904120DABCAA96C
:1011430004120DABA2AA04120DABF3AA04120DAB49
:1011530058AB04120DABD5AB04120DAB0BAC0412A0
:101163000DAB56AC04120DAB7CAC04120DAB0CAD45
:1011730004120DABA3AD04120DABEFAD04120DAB16
:1011830020AE04120DAB57AE04120DABE8AF041240
:101193000DABB2B004120DAB8CB104120DABC3B6E0
:1011A30005120DABC6B605120DAB24B705120DAB78
:1011B30078B705120DAB9AB705120DAB0080051277
:1011C3000DABA48005120DABD38005120DABFB80D4
:1011D30005120DAB8E8105120DABF38105120DAB1C
:1011E300348205120DAB4F8205120DABEB82051253
:1011F3000DAB65B204120DABB2B204120DABF6B275
:1012030004120DAB00B304120DAB0AB304120DAB01
:1012130066B304120DABDAB304120DAB56B5041268
:101223000DAB6CB604120DAB12B704120DAB2CB799
:1012330004120DAB35B704120DAB3EB704120DAB60
:1012430033B804120DAB92B804120DABF0B804120C
:101253000DAB41BA04120DABE5BA04120DAB0DBCD4
:1012630004120DAB849105120DABA59305120DABC2
:1012730017FF04120DAB28FF04120DABC6FF0412B7
:101283000DABD1FF04120DABE9FF04120DABFB7FD5
:1012930000120DABE5BC05120DAB2FBB05120DAB58
:1012A3003FBB05120DAB57BB05120DABA0BB05121F
:1012B3000DABC1B405120DAB44B505120DABAAB508
:1012C30005120DABFDFF02120DABBDB805120DAB40
:1012D300D2B805120DABEDB805120DAB08B9051266
:1012E3000DAB27B905120DAB41B905120DAB58B9BA
:1012F30005120DAB9B9905120DABA99905120DAB08
:10130300229A05120DABF69A05120DABC89C051275
:101313000DAB40BC05120DAB808405120DABEC8404
:1013230005120DABA48505120DAB908605120DAB0E
:10133300008805120DAB678805120DABBB8805123B
:101343000DABC48805120DABD48805120DABEA882A
:1013530005120DAB7EF504120DABAAF504120DAB0D
:101363001BF804120DAB5BF804120DAB9BF80412CF
:101373000DABAFF804120DABC8F804120DABB9F9FD
:1013830004120DAB5EFA04120DAB72FA04120DAB2C
:10139300CDB005120DABF1B005120DAB0AB10512BC
:1013A3000DAB3CB105120DAB6CB105120DAB99B190
:1013B30005120DABFBB105120DAB0AB205120DAB55
:1013C30014B205120DAB21B205120DABA1A9051282
:1013D3000DABC1A905120DAB00AA05120DAB1BAADB
:1013E30005120DAB3AAA05120DABA0AA05120DAB5F
:1013F300A9AA05120DAB06AB05120DAB15AB051271
:101403000DAB39AB05120DABFAAB05120DAB07AC47
:1014130005120DAB18AC05120DABB6FF02120DABE6
:10142300CEFF02120DABFAFF02120DABC8FA041283
:101433000DAB22FC04120DAB30FC04120DAB43FCCC
:1014430004120DAB58FC04120DAB6DFC04120DAB72
:1014530080FC04120DABF4FC04120DAB59FD041215
:101463000DABFBFD04120DABBFFE04120DABCFFEA3
:1014730004120DABDEFE04120DAB94B905120DABD5
:10148300B8B905120DABE0B905120DAB08BA0512D8
:101493000DAB46AC05120DAB6DAC05120DAB8BACB1
:1014A30005120DABFEAC05120DABCEA605120DABAE
:1014B300E7A605120DABF3A605120DAB07A70512A0
:1014C3000DAB25A705120DAB2FA705120DAB39A741
:1014D30005120DAB4CA705120DABD2A705120DAB30
:1014E30047A805120DAB76A805120DABC4A80512CB
:1014F3000DAB13A905120DAB2EA905120DAB38A91F
:1015030005120DAB49A905120DAB8CA905120DAB44
:10151300B1BB05120DABACDE04120DABD6DE04126B
:101523000DABF3DE04120DAB06DF04120DAB1CDFB3
:1015330004120DAB7ADF04120DABB2DF04120DAB54
:10154300A6E304120DABEBE404120DAB1EE504128B
:101553000DAB81E504120DABE1E604120DAB09E717
:1015630004120DAB1EE704120DAB2EE704120DABF4
:1015730072E704120DABCDE704120DABDDE70412E5
:101583000DABC1FE03120DABDBFE03120DAB03FF6C
:1015930003120DAB1CFF03120DAB40FF03120DAB87
:1015A3005EFF03120DAB75FF03120DABA3FF031216
:1015B3000DABBEFF03120DABFCBB05120DAB2D9D96
:1015C30005120DAB3D9D05120DAB429E05120DABF1
:1015D300749E05120DABA49E05120DABC79E05129A
:1015E3000DABDE9E05120DAB189F05120DAB7D9F53
:1015F30005120DABBF9F05120DABFE9F05120DAB80
:101603002FA005120DAB5AA005120DAB2BB205127C
:101613000DAB3DB205120DAB51B305120DAB54B377
:1016230005120DABC2B705120DABF8B705120DAB22
:101633000EB805120DAB50B805120DAB60B805120C
:101643000DAB6FB805120DABB3B805120DAB0DE8BA
:1016530004120DAB47E804120DABB0E804120DAB56
:10166300CDE804120DAB6FE904120DAB78E9041257
:101673000DABBDE904120DABE6E904120DABF3E9C2
:1016830004120DAB64EA04120DABEFEA04120DABC6
:101693003DEB04120DAB7BEB04120DABE0EB04123C
:1016A3000DAB03EC04120DAB7AEC04120DABD1ECD1
:1016B30004120DAB0CED04120DAB41ED04120DAB96
:1016C30053ED04120DAB65ED04120DAB84ED041262
:1016D3000DAB8DED04120DAB48EE04120DAB94EE81
:1016E30004120DABD2EE04120DAB81B305120DAB98
:1016F30097AE05120DABCDAE05120DAB15AF0512AE
:101703000DAB6EB005120DABCD6B00120DABF16CD2
:1017130000120DAB2B6D00120DABD56E00120DAB8D
:10172300FF6E00120DAB747100120DABB471001299
:101733000DAB4A7300120DABE77300120DAB397496
:1017430000120DABDC7400120DAB147500120DAB5F
:10175300567500120DABC57600120DAB137800124F
:101763000DAB447A00120DAB727A00120DAB997A6D
:1017730000120DABA27A00120DABF97A00120DAB79
:101783008B7B00120DABB87E00120DAB3B7F0012BA
:101793000DABCFBC05120DAB887F00120DAB979537
:1017A30005120DABAD9505120DAB519605120DABA0
:1017B300909605120DABAD9605120DABDE96051294
:1017C3000DAB2B9705120DAB5E9705120DAB9997D9
:1017D30005120DAB8E9905120DABC3B505120DABFA
:1017E30022B605120DAB60B605120DABA1B60512FC
:1017F3000DAB4BF703120DAB61F703120DABF6F70D
:1018030003120DAB26F903120DABECF903120DAB6A
:1018130089FA03120DABEEFA03120DAB0AFB0312A6
:101823000DAB5DFB03120DABCEFC03120DABD3FC72
:1018330003120DABF3FC03120DAB008003120DABCF
:101843000C8003120DAB6E8003120DAB7880031274
:101853000DAB098103120DAB458103120DABF98169
:1018630003120DAB0C8203120DAB6D8203120DAB91
:10187300D88203120DAB478303120DABC783031248
:101883000DAB908503120DAB658703120DAB9388E7
:1018930003120DABF98903120DABAC8A03120DAB26
:1018A300A78F03120DAB9C9003120DAB3191031262
:1018B3000DAB569103120DABF29103120DAB0792D0
:1018C30003120DAB2B9203120DAB9C9203120DABC3
:1018D300B99203120DABE39203120DAB7B94031287
:1018E3000DAB9C9403120DAB429503120DAB89957E
:1018F30003120DABEC9503120DAB6D9603120DABFA
:10190300D19603120DAB3B9703120DABD197031284
:101913000DAB4D9803120DAB819803120DABE498F8
:1019230003120DAB449A03120DABDB9B03120DABF9
:10193300889C03120DABF19E03120DAB5A9F031249
:101943000DAB849F03120DABAFA103120DAB3AA4F1
:1019530003120DAB35A503120DAB4BA903120DAB4F
:10196300DAA903120DAB50AA03120DAB2FAB03126E
:101973000DAB2AAC03120DABA7AC03120DABE5AD57
:1019830003120DAB80AE03120DAB57B003120DABB8
:1019930046B103120DAB92B103120DABB5B20312F4
:1019A3000DABF8B303120DAB9AB403120DABCCB766
:1019B30003120DABC8B903120DAB52BA03120DAB30
:1019C300AABA03120DABF8BA03120DAB73BB031221
:1019D3000DABF7BB03120DAB33BC03120DABB1C29E
:1019E30003120DAB02C503120DABD9C503120DAB28
:1019F300FEEE04120DAB07F004120DAB85F10412D9
:101A03000DABD1F104120DABF9F104120DABFCF1E6
:101A130004120DAB0FF204120DAB12F204120DAB54
:101A23004EF204120DAB79F204120DABB9F20412AB
:101A33000DABDAF204120DAB15F304120DAB55F333
:101A430004120DABD8F304120DAB3EF404120DAB2C
:101A5300AAF404120DAB2AF504120DAB45F50412DA
:101A63000DAB6CF504120DABA4BC05120DAB0080DD
:101A730004120DAB2F8004120DABA78004120DAB23
:101A8300AA8104120DAB068204120DAB87830412E4
:101A93000DABA38304120DABF58304120DAB33849A
:101AA30004120DAB468404120DAB988404120DABE3
:101AB300538504120DABBF8504120DABE9850412E7
:101AC3000DAB218604120DAB938704120DAB6C880A
:101AD30004120DABB58904120DAB888A04120DAB49
:101AE300108B04120DAB588B04120DAB728B0412C6
:101AF3000DABB98B04120DABD98B04120DAB6F8CEC
:101B030004120DABFE8C04120DAB588D04120DABF9
:101B13009C8D04120DAB189004120DAB4691041268
:101B23000DAB829104120DAB749204120DAB9C9217
:101B330004120DAB9F9204120DABA99204120DABCC
:101B4300BC9204120DAB459304120DAB7B930412AC
:101B53000DABA79304120DABCE9304120DABF2930E
:101B630004120DAB639404120DAB719404120DAB0C
:101B7300A49404120DABB0BA05120DABBCBA051296
:101B83000DABFABA05120DABFBFF01120DABCCE79F
:101B930001120DABEFE701120DAB35E901120DABED
:101BA3007EE901120DABD8E901120DAB3EEA011239
:101BB3000DAB41EA01120DAB8DEA01120DAB07EB40
:101BC30001120DAB8DEB01120DAB90EB01120DABBE
:101BD3001CEC01120DAB5FEC01120DAB9EF0011278
:101BE3000DAB3BF201120DAB7DF201120DABF2F521
:101BF30001120DAB20F701120DABAAF801120DABC8
:101C030037F901120DAB31FA01120DAB6EDA041282
:101C13000DABBA9404120DAB5A9504120DABC495D7
:101C230004120DABDD9504120DAB679604120DABD8
:101C3300BD9604120DAB019704120DAB6897041205
:101C43000DABDE9804120DAB0C9A04120DAB859A02
:101C530004120DAB889C04120DAB309D04120DAB26
:101C6300BF9D04120DAB929E04120DAB6DA0041226
:101C73000DAB0EA204120DABB6A204120DABC8A39A
:101C830004120DABCEC603120DAB24A804120DAB88
:101C93008AC703120DABC8C703120DAB11C80312D9
:101CA3000DAB5BC803120DAB93C803120DAB11C987
:101CB30003120DAB6BC903120DABC7CA03120DABF5
:101CC30058CB03120DABB6CB03120DABD0CB031223
:101CD3000DABF1CB03120DAB49CC03120DABBACE56
:101CE30003120DABD9CE03120DABB8CF03120DAB5C
:101CF300D0D003120DAB4DD103120DABBAD10312E9
:101D03000DAB23D203120DABDDD203120DAB9BD46B
:101D130003120DAB9CD503120DAB21D703120DABF0
:101D23000CD903120DAB6FDB03120DAB15DD0312E0
:101D33000DABE3DD03120DAB49DE03120DAB60DE29
:101D430003120DAB50DF03120DAB3CE003120DABDE
:101D5300A9E003120DABEDA305120DAB39A50512D6
:101D63000DABF6A505120DAB5AA605120DABB2A02D
:101D730005120DABCDA005120DAB11A105120DABD4
:101D830037A105120DAB5DA105120DAB75A10512AF
:101D93000DABD8A105120DABEDA105120DAB01A33F
:101DA30005120DAB1CA305120DAB25A305120DAB3C
:101DB3002EA305120DAB37A305120DAB41A30512DC
:101DC3000DAB67A305120DABF48805120DABE28CC6
:101DD30005120DABE78C05120DABE98C05120DABAB
:101DE30088FE01120DAB78BC05120DAB508D0512A8
:101DF3000DABDD7F00120DAB2DBA05120DAB57BA3B
:101E030005120DABFDD902120DAB30DA02120DAB88
:101E13009CDA02120DAB37DB02120DABD4DB0212DC
:101E23000DAB19DC02120DAB3BDC02120DAB54DC23
:101E330002120DAB7ADC02120DAB9CDC02120DAB6D
:101E4300DADC02120DAB1EDD02120DAB40DD021215
:101E53000DABA2DD02120DAB69DE02120DAB20DF6A
:101E630002120DAB92DF02120DAB5DE002120DAB5D
:101E7300B0E002120DAB16E102120DAB50E10212FB
:101E83000DABA2E102120DAB10E202120DAB7BE22D
:101E930002120DAB7EE202120DABFFE202120DAB9A
:101EA30096E302120DAB16E402120DAB35E40212F7
:101EB3000DAB99E502120DABA6E502120DABB2E62E
:101EC30002120DABBFE602120DABC8E602120DAB58
:101ED300A0E802120DABBAE902120DAB33EA02120B
:101EE3000DABA5EA02120DABC7EA02120DAB5BEB19
:101EF30002120DAB2FED02120DAB06F102120DAB68
:101F03001AF102120DAB2AF102120DAB34F10212D7
:101F13000DAB3DF102120DAB46F102120DAB50F1C8
:101F230002120DAB7DF102120DABA6F102120DAB45
:101F3300B1F102120DABD5F102120DABF9F10212A0
:101F43000DAB63F202120DABA9F202120DABC6F296
:101F530002120DAB43F302120DAB7AF302120DAB77
:101F6300B9F302120DAB06F402120DAB8CF402129C
:101F73000DAB5AF602120DABDDF602120DABC1F733
:101F830002120DAB28FA02120DAB81FA02120DAB4D
:101F9300CBFA02120DAB26FC02120DAB5BFC021254
:101FA3000DABADFC02120DAB62FD02120DAB11FEC7
:101FB30002120DAB4EFE02120DABE3FE02120DAB8D
:101FC3004FFF02120DAB008002120DAB32800212E2
:101FD3000DAB608002120DAB368202120DAB16837D
:101FE30002120DAB6E8302120DABA98402120DAB6C
:101FF300F58402120DAB1E8802120DAB118B021277
:102003000DAB618C02120DABF78C02120DAB038D7D
:1020130002120DAB358D02120DABB88E02120DAB51
:10202300C68F02120DABF08F02120DAB5790021246
:102033000DABB09002120DAB169102120DAB2D93A6
:1020430002120DABBC9402120DAB869502120DABBE
:10205300CC9602120DAB1C9902120DABEC9B021233
:102063000DABF99B02120DAB809C02120DAB149DBC
:1020730002120DAB579D02120DABA09D02120DABC8
:10208300F49D02120DAB6D9E02120DABDC9E02128B
:102093000DABF99E02120DAB299F02120DAB5E9F91
:1020A30002120DAB2EA002120DABD7A002120DAB84
:1020B3005DA302120DAB7DA402120DAB68A5021243
:1020C3000DABEAA502120DAB21AA02120DAB5EAA5B
:1020D30002120DABB6AA02120DABE9AA02120DABA6
:1020E30053AB02120DAB89AB02120DAB14AC02124F
:1020F3000DAB6CAC02120DAB43AD02120DABFCADDC
:1021030002120DAB97AE02120DAB9FB102120DABD3
:10211300BBB202120DAB5EB602120DAB52B7021286
:102123000DAB55B702120DAB84B702120DAB8AB9D2
:1021330002120DAB63BA02120DABA6BA02120DABBB
:10214300FCBB02120DAB3BBC02120DABCDBC0212A9
:102153000DAB01BD02120DABC6BD02120DABDEBF4E
:1021630002120DAB4FC002120DAB8FC002120DABAA
:102173001DC102120DAB45C202120DAB07C3021201
:102183000DAB0EC502120DAB26C502120DAB3AC53F
:1021930002120DAB72C502120DABA0C502120DAB3C
:1021A3001FC702120DAB44C802120DABA8C802121E
:1021B3000DAB5AC902120DAB8AC902120DAB51CA3B
:1021C30002120DABE9CA02120DAB0FCD02120DAB19
:1021D30044CD02120DABA7CD02120DABD6CE021227
:1021E3000DAB7ECF02120DABAFCF02120DABC7CF3B
:1021F30002120DAB56D002120DAB0AD302120DAB75
:10220300E2D402120DABFED402120DAB1AD50212A8
:102213000DABE8D502120DABDBD902120DABC72E05
:1022230000120DABF92E00120DABE83200120DAB0C
:10223300343300120DAB7A3300120DAB1C34001291
:102243000DAB783400120DABBD3400120DAB043668
:1022530000120DAB183700120DAB073B00120DAB8C
:102263008B3B00120DAB983C00120DABF43C0012FB
:102273000DABE43E00120DAB593F00120DAB633FB3
:1022830000120DAB703F00120DAB9B3F00120DAB64
:10229300824000120DAB2C4100120DABAA4100127B
:1022A3000DABCF4100120DABF84100120DAB1A423A
:1022B30000120DAB7A4400120DAB404500120DAB7A
:1022C300854500120DAB024600120DABB34600125A
:1022D3000DABE54600120DAB2B4700120DAB674764
:1022E30000120DABB74700120DAB0B4800120DAB3C
:1022F300614800120DABAD4800120DAB1A49001234
:102303000DAB954900120DAB604B00120DAB604C49
:1023130000120DAB854D00120DABC45000120DAB76
:10232300D75300120DAB945400120DABD8540012C6
:102333000DAB885600120DAB9C5600120DABA65682
:1023430000120DABB05600120DABBC5600120DAB14
:10235300D85600120DAB835700120DABC2570012B3
:102363000DABCC5700120DABD65700120DAB465830
:1023730000120DAB915800120DABA65900120DAB14
:10238300025A00120DAB835A00120DAB425B0012CE
:102393000DAB4B5C00120DAB7F5D00120DAB6D5EA0
:1023A30000120DAB855E00120DABE05E00120DABAB
:1023B300EA5E00120DAB085F00120DAB505F001216
:1023C3000DAB775F00120DAB126000120DABD8603E
:1023D30000120DAB6A6100120DABE46100120DAB8C
:1023E300FE6200120DABAB6300120DABD36400129F
:1023F3000DAB236500120DAB876500120DABE965CC
:1024030000120DAB176600120DAB3B6600120DAB4D
:10241300706600120DABA16600120DABD4660012FC
:102423000DABF46600120DAB5C6700120DAB506888
:1024330000120DABAB6800120DABD46800120DABEC
:102443005C6900120DABDF6900120DAB0A6A001262
:102453000DABEF6A00120DAB2EC904120DAB66C9AA
:1024630004120DAB87C904120DABC9C904120DAB1D
:102473002BCA04120DAB35CA04120DAB45CA0412A4
:102483000DAB80CA04120DAB60CE04120DAB4DD060
:1024930004120DAB33D204120DABCAD204120DAB2E
:1024A3006CD304120DABA8BC01120DAB26BD0112F7
:1024B3000DAB82BD01120DABCDBD01120DABE8BD5D
:1024C30001120DAB13BE01120DAB30BE01120DABE9
:1024D3003CBE01120DABD3BF01120DABECBF011219
:1024E3000DAB71C001120DAB84C001120DABA3C0C3
:1024F30001120DAB47C101120DABC8C201120DABE6
:102503007BC401120DAB11C501120DAB14C5011231
:102513000DAB84C501120DABA2C501120DAB39C6BB
:1025230001120DAB81C601120DAB84C601120DABB6
:102533004AC701120DABB7C701120DABDDC70112BC
:102543000DAB68C801120DAB86C801120DABCCC828
:1025530001120DAB80C901120DABCAC901120DAB3B
:10256300F9C901120DAB56CA01120DAB8BCA011288
:102573000DABB7CA01120DABC5CA01120DAB12CB1D
:1025830001120DAB82CB01120DABCBCB01120DAB04
:1025930017CC01120DAB43CC01120DAB4ECC011283
:1025A3000DAB6CCC01120DAB57CD01120DAB61CD50
:1025B30001120DAB9CCD01120DABACCD01120DABD5
:1025C300B5CD01120DAB09CE01120DAB1DCE01121B
:1025D3000DAB4CCF01120DAB5FCF01120DAB74CF1E
:1025E30001120DAB02D001120DAB47D001120DAB9E
:1025F300D3D001120DABDED001120DAB20D20112EC
:102603000DAB3BD201120DAB87D201120DABF6D24B
:1026130001120DAB2FD301120DAB49D301120DAB38
:102623008BD301120DAB5BD601120DAB08D7011290
:102633000DAB75D701120DABB5D901120DABCDD9C9
:1026430001120DABD0D901120DABDCD901120DABC8
:10265300F0D901120DABF8D901120DAB2BDA01122F
:102663000DAB2DDB01120DABB4DB01120DAB24DC82
:1026730001120DABA6DC01120DAB67DD01120DAB30
:1026830086DD01120DAB27DE01120DAB84DE0112D4
:102693000DAB87DE01120DABFBDE01120DAB4AE081
:1026A30001120DAB50E101120DABDBE101120DABD9
:1026B300F6E201120DABBEE301120DABEFE3011223
:1026C3000DAB12E401120DAB1BE401120DAB4AE496
:1026D30001120DABDAE401120DAB90E501120DAB63
:1026E30005E601120DABACE601120DAB21E70112B9
:1026F3000DAB58E701120DAB96E701120DABD0D924
:1027030004120DABE4D804120DAB15D804120DABB3
:1027130070D504120DABBBD404120DAB43D4041219
:102723000DAB1BF703120DAB11F703120DABA4F6A0
:1027330003120DABF8F403120DAB08A804120DAB92
:10274300EEA504120DABB6F403120DABE0F30312C6
:102753000DABC0A504120DAB8DA504120DABCAF3CE
:1027630003120DAB8BF303120DABE5F203120DABAA
:10277300EAEF03120DABD3ED03120DABA0ED031281
:102783000DAB3BED03120DABCEEC03120DAB8DEC99
:1027930003120DABC6EB03120DAB61EB03120DABD2
:1027A3000CEB03120DABAFEA03120DAB86E9031278
:1027B3000DAB23E903120DAB6DE803120DAB68E813
:1027C30003120DAB5CE803120DAB11A504120DABA4
:1027D30066DE04120DAB2EDE04120DABD7DD041240
:1027E3000DAB5BDC04120DAB9DDB04120DAB00DB08
:1027F30004120DAB0FE503120DABE9E403120DABAD
:102803008EE403120DAB39E403120DABF6DA0412B6
:102813000DAB26E403120DAB1BE403120DABF7E380
:1028230003120DAB32E203120DABB1E103120DAB98
:10283300ECDA04120DAB6DE103120DAB42C70312C8
:102843000DAB46E103120DABE3C804120DAB8AC80E
:1028530004120DAB4CC804120DAB1FC804120DAB10
:10286300EBC704120DAB8AC704120DAB72C7041277
:102873000DAB4EC704120DABD5C304120DABA8C1EB
:1028830004120DABAFBF04120DAB35BF04120DAB79
:10289300E4BE04120DAB82DA04120DAB9EBE041229
:1028A3000DAB02BE04120DAB88FC0100000080FBDF
:1028B300E4738F000100181A87000100161A35000F
:1028C3000400DF1925000200E31926000200E519C0
:1028D30027000200E71928000100F119290001006F
:1028E300F2198400040040178600010062192A00CF
:1028F3000100F3192B000100F4192C000100F81951
:102903002D0008004C172E000100F9192F000100BB
:10291300FA1930000100FB1931000100FC193200E3
:102923000100541733000100551734000100FD194D
:1029330036000100561738000100FE193900010066
:10294300F71983000200141A630001006217640080
:102953000100F51965000100F6196D000100631708
:1029630071000800441766000100131A43000100B8
:10297300041A44000200051A45000100071A460024
:102983000200081A470008005A17480001000A1AF3
:102993004B0001000B1A04000100171AA1000100EB
:1029A3001B1A370001001A1A88000100191A3C008B
:1029B300010057173D000100FF19490002000C1ADE
:1029C3006700010064174D0002000E1A4E0001005B
:1029D300101A4F000200111A3E000100031A5100A1
:1029E3000100581752000100011A53000100021A96
:1029F30054000100591700000000000000013636A2
:102A030001010001020100010301000104010606A6
:102A130005020000070100340801000F0904010149
:102A23000D0100FF0E08000017020000190100FF4E
:102A33001A0100011B0100FE1C0100081D02000019
:102A43001F01000120010001210200002301000FEA
:102A5300240200002601000127010008280200FFCC
:102A63002A0100072B0102402C0100002D01000167
:102A73002E0100012F0100FF30010B1D3108000062
:102A83003A0100083B01000F3C0100013D0100FF3A
:102A93003E04000042040000460400004A04000013
:102AA3004E04000052040000560400005A040000C3
:102AB30000000300200183BB00000000200182BB53
:102AC300000004004201F7BA000005004201E4BA25
:102AD300000006004201A4BA00000700300180BBD9
:102AE300000010004203AB19000011003003381638
:102AF300000012001003BC19030000002103391663
:102B03000000FDFF21017CBB0300FDFF21017CBB15
:102B130006000000100122160600FDFF21817CBB88
:102B230001002000200123160100210020052416A6
:102B33000100FDFF21817CBB02040000290525164D
:102B43000204010029017ABB02040200290178BBB7
:102B53000204FDFF21017CBB010371030103010397
:102B63000103010301032203020301031003000312
:102B730000030003000300030003000342030003F8
:102B830024030603000300030403120325032303A2
:102B93002503230304030403000300030003440386
:102BA30000030003230300036503210035038103AE
:102BB30000030503000300030003000325032303AD
:102BC300030271023001600211027002010202026B
:102BD30002028002100261023A00410063027302A2
:102BE3007202620243020002130238000002000272
:102BF30004021202000200020002000204020402A4
:102C0300370037003C024402000239000002000290
:102C1300650200023502810200020502820283027C
:102C230000020101710101010101110101013101E1
:102C3300010101018001100161013B0014006301E6
:102C430073017201620143010001130106013D0199
:102C5300350004011201000100010001000104011B
:102C63000401330133013C01440132013600000108
:102C730000016501000135008101000105018201A8
:102C83008301000103007100300160001100700036
:102C93003102200350048000100061000000140082
:102CA300630073007200620043000000130006001B
:102CB30000000000040012000000000000000000FB
:102CC30004000400370037003C0244000000000009
:102CD30000000000650000003500810000000500D1
:102CE30000008300000036000100060000000F0012
:102CF30000000000000000000000000003FFFF00D0
:102D0300000403FFFF0000FFFF0FF4010005C404EC
:102D13000320000100000B0000000000000000037E
:102D2300010F000000000000000000000000000090
:102D33000000000000000000000000000000000090
:102D430000000000181942191E19581824194819AF
:102D5300241954192A1958182419481930195818BC
:102D630000000000361958180000000000000000A1
:102D73003C1958180000000000000000000000008B
:102D83000000000000000000000000000000000040
:102D93000000000000000000000000000000000030
:102DA30000003C1C01003C1C0200B21B0280AC1B57
:102DB3000300B81B0400BE1B0480C41B0500CA1B10
:102DC3000600D61B3100E81B3300EE1B3400F41B56
:102DD300FFFF000007ECFDFDFDECDCDCCCBCACAC84
:102DE3009C9C8C7C7C6C6C5C5C5C4C4C3C3C2C2CD0
:102DF3001C1C03EAF5E5D5D5C5B5A595958585755F
:102E030075656555554545353525251515050A96C9
:102E130022026022056C220766220C48220D5422EE
:102E2300FF000000160F00000B150B020002220F1B
:102E33003300000E0F5A6967426565416C6C696126
:102E43006E63653039D0D1D2D3D4D5D6D7D8D9DAB9
:102E5300DBDCDDDEDF303016181920231A1C1E30B0
:102E630000034D4C4651181A250502000119161886
:102E7300161618230300303017181921301B1D1F95
:102E830030003C40423A3F3F392F47300C0E020B93
:102E9300040B0A0708000F020402010101010902E1
:102EA300E803000000BE040A01000E000300E8036B
:102EB30004091503101E030A0C04040828020C0558
:102EC30008151E0474F71208EEE9901839F09017EC
:102ED300EEE4F012160C901851E4F0A3F090183AB7
:102EE300F0A3F01223EC121612901772E4F0A3F081
:102EF300121DA402483274F01208EE74D3120EAC01
:102F030012629854806066901839E0F91216848A28
:102F1300088B09AF09EA4F604C7C0080010CEC750B
:102F2300F003A4F8A9F0741128F582742E39F583FF
:102F3300E493F46029E493F88A828B83E06870DD7C
:102F4300EC75F003A4F8741228F582742E39F58316
:102F5300E493C0E0740193F583D0821228B3AA08E6
:102F6300EFFB1216721269CA64800232C885188296
:102F7300851983A3E05420601F1222FC8A088B0961
:102F8300AF09EA4F600A122254AA08EFFB12167225
:102F93001269CA64200232C8851882851983E0A2A7
:102FA300E050429017F3E0640F702E900BAB126960
:102FB300D5900BABC3E094E9A3E09403400A7A00F5
:102FC3007B80901664124914790012222AE9600961
:102FD3009019DF1210CC122242851882851983E0E2
:102FE30064010232AD542070030232B27A207B00B6
:102FF300901839E0F91217C8EA4B4C4D701A901823
:103003004D1210E4E8494A4B700E7508017509002A
:10301300750A00750B00806D750C00750D00750E3B
:1030230000750F001217D48A088B098C0A8D0B9038
:10303300184D1210E4E8494A4B603190184D780856
:10304300120D64400E750CFF750DFF750EFF750FA5
:103053007F801985080C85090D8C0E8D0F90184DF6
:10306300780C120E947401780C120E63850C08858B
:103073000D09850E0A850F0BE5084509450A450B21
:10308300700302320C7C0079047A007B001222D296
:103093008A0C8B0DAE0CAF0D023150740212110766
:1030A30074FFF0740312110774FFF0740412110714
:1030B30074FF1249871261527407120E8C1264084E
:1030C300E96401706A1232D44480F8A3E0F97428E9
:1030D300121107E8F0A3E912669CE0C0E0742A121B
:1030E3001107D0E0124974540860167428121107AE
:1030F300A3E044011232E1C0E0742C121107D0E0C6
:10310300F01262DB6011E8240B123AC7F87416124E
:103113001107E8F0A3E4F090BB50120C2C740612D4
:103123000E8C740B120E84121EF47404120DDE8EB8
:10313300828F83A3A3A3A3A3A3A3A3A3740612327F
:10314300E1F91222B4740512110712645FEE4F7095
:103153000302320C7C007904EEFAEFFB1222D274E4
:1031630005121107EAF0A3EB12469EE0F50CA3E06B
:10317300F50DE4F50EF50F7808790C1210344023A1
:10318300EE2404F8E43FF985080C85090D8882F5DF
:1031930083C3E0950CF0A3E0950D126ABFE8497074
:1031A300A4800C8E828F83A3A3A3A3E4F0A3F08E49
:1031B300828F83A3A3A3A3A3A3A3A3A3A3E06401D5
:1031C3008E828F83A3A3A3A3A3A37020E0540460E0
:1031D3000302309E8E828F83A3A3A3A3A3A3A3A3DF
:1031E300A37406F07AB7123407023148A3A3A3A34A
:1031F300E0600302309E8E828F83A3A3A3A3A3A3C5
:10320300A3A3A37401F00231481222A27C00790126
:103213007A007B001222D2EA4B600312490D7C0034
:1032230079047A007B001222D2EA4B701380448A1D
:10323300828B83A3A3A3A3126477EE98EF99400B29
:103243008A828B83A3A3A3A312645F7C00790412F5
:1032530022D28B0BA90BEA4970D5C3E5089EE50979
:103263009F500DC3EE9508FEEF9509FFEE4F700DCD
:1032730012490D90184D1232DAA3F08024EE2EFE7F
:10328300EF338E08F509E4F50AF50B7808120DF90A
:103293007A201234B0120DDE1217D490184D12108A
:1032A300D8851882851983E06420FAA3E08016A3E9
:1032B300E054046013125B251228067901123C8E38
:1032C3001269CA6404FB80047A007B00742D0262D5
:1032D300B7EE1262C5E022E4F0A3F0A3F022124994
:1032E30079A3A3E022C082C08374EA120EAC7C16D9
:1032F3007D007900AA18AB1912165A740812110727
:103303007402F09017E2125D6112332874091211EE
:1033130007125D797413121107E41259F8121D9202
:103323007416024C43E8F0A3E9F09017EC126447DB
:103333002274F71208EE74DA120EACEAFEEBFFEA1F
:103343004F602DAC18AD1912231A7406121107E041
:10335300601E7417121107E0FD7401121107E0FCDF
:10336300EEFAEFFB7900122200E9600479A48002EF
:103373007900742602482F74F71208EEEAFEEBFF79
:103383008A82F583A3A3A3A3A3A3E0544060178A6F
:10339300828B83126278124B5260067AFF7BFF8026
:1033A3001512627480039017E212615274FE6A7000
:1033B3000374FF6B604112627412629E1223B6E9BA
:1033C3008E828F83600B125E57126A8AE4F0A380A9
:1033D30003126A79F07C307D228E828F831241C87A
:1033E300E9F5087015EE4F60097901EEFAEFFB126B
:1033F30022AEA9080248327508CDAA08123407E99B
:1034030060E380EE8E828F83125E5B240CF582E490
:1034130038F583E0F912223C2274F61208EEE9FE35
:10342300EAFF7A0F7B0012166CEA4B601A8A828BD2
:1034330083740CF0EEA3A3F0EF8A828B831245ED25
:10344300125A567900802BEEF91222D88B09A9095A
:10345300EA49601C8A828B83A3A3A3A3A3A3A3A388
:10346300A374061245F6E0F9121F96EEF91222B480
:10347300791002584174F41208EE8A088B098C0AF9
:103483008D0B9017F3E0640F701EEA4B4C4D6018E0
:103493009017EEE064086005E06404700B7808128E
:1034A3000DF91234AE120DDE0237137A017B009050
:1034B3001839E0F91217B674042274F41208EE7482
:1034C300FC120EACEAFEEBFF8A82F583A3A3E0F9BC
:1034D3001222D88A088B09EA4B70030235F68E82D2
:1034E3008F83A3A882A983E0C0E0EA125A4CD0E0FC
:1034F30012445C64F160288E828F83A3E064CD6004
:103503001E8E828F83A3E0641A60148E828F83A33E
:10351300E064E9600A8E828F83A3E064E17033790B
:10352300001222AEE9602BE5082404F50AE435090C
:10353300F50B850882850983A3A3A3A3A3A312453F
:103543003212443A12161E850A82850B8312629E3A
:1035530080708E828F83A3E0C0E07402121107D0C3
:10356300E0124C51124D74123EDDC0E0740312118F
:1035730007D0E0F0E508126747123B86E0AA18ABD4
:10358300197005121EEE800312239874021211079C
:10359300E064E9702D850882850983123CEC750A85
:1035A30001780A120E05750AE9780A120E0512440B
:1035B3000E123EAAFCA3E0FD8A828B83123ED41234
:1035C3000DDE850882850983A3A3A3A3A3A3A3A3D5
:1035D300A3E064027012850882850983A3A3A3A3D1
:1035E300A3A3A3A3A37406F08E828F83A3A3E0F9FE
:1035F3001222B41222A29019E5123AF87404023787
:103603001074F41208EEEAFEEBFF7508008A82F5E7
:1036130083A3A3A3A3A3E0603875080812614579C7
:10362300FF12206EEA4B601075082C8E828F83A3E5
:10363300A3A3A3A3E0D2E0F08E828F83A3A3A3A3CB
:10364300A3E05403640160030236FF43081102360A
:10365300FFEA241812503A6036EA241A12503A60EC
:1036630003F470131264277003A3E0696003023646
:10367300FF7508220236FFEA241B123703241A12AD
:10368300503AFAEE241912503AF9121F84806D8AC7
:10369300828B83A3A3A3A3A3A3A3A3A3123AE3703D
:1036A300037508018E828F8312642B7003A3E06974
:1036B3007006E508D2E1F508E50860158E828F8370
:1036C300A3A3E07006E508D2E58004E508D2E6F599
:1036D30008124B4564017006E508D2E0F5088E82B6
:1036E3008F83A3A3E06015EE241D125359F912230F
:1036F3009EE964016006E508C2E0F508A9088010A8
:10370300F582E43FF583126AE2EA227409120DDEC0
:103713007F04020B6174F01208EE74D7120EACEA48
:10372300FEEBFF8A82F583A3A3A3A3E0600E9019A7
:10373300E31262E260069019E3123AF87403120E80
:103743008C8E828F83A3A3A3125C24126150122355
:103753001AE970030238A978017405121107E0C34E
:103763009402400278007407121107E0C3940240E8
:10377300027800740C121107E064F87003A3E0F4FC
:1037830070030238A9740C121107E064F97003A3E3
:10379300E0F470030238A9740C121107E064FA70A4
:1037A30003A3E0F470030238A9740C121107E06458
:1037B300FB7003A3E0F470030238A9740612110727
:1037C300E0F99017DCE06960030238A9E8A2E04061
:1037D300030238A97427121107E060030238A9EE27
:1037E300241312643D7422121107125C2E241C123E
:1037F300643D7410121107125D797409121107E008
:10380300601D741A121107E0FD7404121107E0FC25
:103813008E828F831261507901122200E9703B740A
:1038230003120E8412224EE9F50C7409121107E0FB
:10383300702C9017D6E060267422596422601F749E
:103843004259644270147420121107123ADD600E5B
:103853007420121107123AD660047ACF804AE9A283
:10386300E6504D742012110712535F24FD600F14AC
:10387300600C24FD600824FD600424FE702874207D
:10388300121107123ACF700E7420121107125985C4
:10389300A3E0640D601A7403120E841223CEE9644C
:1038A30001700D023ABF7AD37B00121B88023ABF24
:1038B300EE242DF582E43FF583123CE37003A3E08D
:1038C30069701D7508007808120E057808120E0538
:1038D300EE242F12503AF9123AE9123ED4120DDEB9
:1038E3007409121107E07003023987123AE9126171
:1038F3005212241C8A0E8B0FEA4B7003023A18747F
:1039030004121107E0F88E828F83A3A3E028F8A3A3
:10391300E03400F9E8240D123AC7F88A828B83A3B6
:10392300A3A3E068600EE88A828B83A3A3A3124556
:10393300E61232DB7904E9121107125059A3E02A87
:10394300F8A3E034008882F583A3AA82AB8312161E
:10395300608A088B098C0A8D0B850E82850F83A3E1
:10396300A3A3A37808120D644003023ABF90BB1CC3
:103973007808120F7B850E82850F83A3A3126AE852
:10398300A3124D7D9017EEE064046008E0640960C3
:1039930003023ABFE50CA2E54003023A52EE242F9C
:1039A300125042F0EE243012503AC0E0740112116A
:1039B30007D0E0F0EE243112503AC0E07402121145
:1039C30007D0E0F07414121107E064017026740E3E
:1039D300121107124435241312503A687003A3E0FE
:1039E300697011740C121107123AE3700774141200
:1039F3001107E4F0EE2425F582E43FF583120C2C45
:103A03007404120E8C7407120E84121EF4740412C2
:103A13000DDE023ABF901833E06401600302398778
:103A23007420121107123ADD7009E50CA2E6500367
:103A33000239877410121107E0F47003A3E0F460F5
:103A43007BEEFCEFFD7403120E8412225A806DA2EA
:103A5300E650697420121107125E677016741A1209
:103A63001107E0640270557403120E847900122367
:103A73009280497420121107123AD67014741A12E4
:103A83001107E0640470357403120E8412238680D8
:103A93002B7420121107123ACF700C7900740312A1
:103AA3000E841223DA80157420121107125985E04F
:103AB300640C70087403120E841223E674290262E4
:103AC300B7E82406F582E439F583E02212627EE04A
:103AD30064032212627EE0640722125363640622A7
:103AE300124B56640222EE242BF582E43F126AE065
:103AF300EE124B2B22E0F508A3E0AA08FBE4FCFD41
:103B03001222422274F41208EEEAFEEBFF8C088DB7
:103B130009901754E0600F1264277003A3E06970E3
:103B230005121F7280537900126145121FA28A8207
:103B33008B83E5824583602CA3A3A3A3A3A3E054B3
:103B4300186021E508241C123B83120C30123B7FC2
:103B5300120C30EE2418123EBB1256201263FF12D1
:103B63000DDE801579008E828F83A3A3A3125E4D91
:103B7300125620126152121F78023713E5082413DC
:103B8300F582E43509F5832274F71208EE74F7120F
:103B93000EACEAFEEBFF9017EEE06403600DE06409
:103BA300016008E064096003023C898A828B83A375
:103BB300E06003023C577C007D007A027B00121612
:103BC300181264A48A821264419017DF125D797916
:103BD30053121D809017EEE0640960099017EC12F0
:103BE3006152122416851882851983740112599D16
:103BF3009017EE7404F07401120E84794A121D7A40
:103C03007401120E8C7AE47B171217EC901667E09E
:103C1300640B70057406F080057900123C8E9017D2
:103C2300DF125E537A037B001216189017E2125EBE
:103C3300537A047B001216189017D9E0A2E35004BC
:103C4300D2F08002C2F012598A9019DF1210CC12FE
:103C53002242802FFC7D007A037B101216189016E7
:103C630067E0640B7003740AF0901758E4F0FA7B72
:103C73004012577A8E828F83A3E0F9123C8E9017FD
:103C8300EEE4F0122284740902482F9017EC1261BB
:103C930056121F0622C082C0839017721262E2700E
:103CA300179017EEE024FB6005146007800A901755
:103CB30078801F90177A801AE8496007123AC46423
:103CC30001700C8A828B83A3E0F9121EFA800E9096
:103CD30018681262E260061259861228B30254D1A0
:103CE3001264479017ECE06822126447E8FAE9FB94
:103CF3002274F51208EE74D8120EAC8A088B098A66
:103D0300828B83A3A3A3A3A3A3A3A3E0C3940F5072
:103D130003023EA58A828B83A3A3A312645F741557
:103D2300120E8C8A828B83A3A3A3A3A3A3A3A312A0
:103D33003EAAFAA3E0FB1222907415121107E07059
:103D43002E850882850983A3A3A3A3A3A3A3A3E02A
:103D5300C3940B401A8E828F83A3A3A3A3A3A3A30D
:103D6300A3E064027009EE240B12503AF4600302DC
:103D73003EA57417121107E0600764026003023E58
:103D8300A59017EEE06402601CE0640660179017CC
:103D9300721262E27003023EA5123AC46401600328
:103DA300023EA580259017721262E2701D7508000D
:103DB3007808120E057808120E05EE2410123EBB89
:103DC3008E828F83123ED4120DDE8E828F83126A0F
:103DD300B71244651264437402121107125C2E1267
:103DE30032D5C0E07404121107D0E0123EDDF508AD
:103DF300A3E0F509740F78081210927405121107E5
:103E0300E508F07419121107E0C0E07406121107F7
:103E1300D0E0F0741B121107E0C0E0740712110721
:103E2300D0E0F07416121107E0C0E0740912110714
:103E3300D0E0F07417121107E0C0E0740812110704
:103E4300D0E0F0EE241012503AC0E0740A121107C9
:103E5300D0E0F0741A121107E0C0E0740B121107DE
:103E6300D0E0F07427121107E0C0E0740C121107C0
:103E7300D0E0F0741C121107A982AA8389088A0969
:103E8300750A007808120DFD7C087D00741012116C
:103E930007AA82AB83125031120DDEAA18AB191296
:103EA3001F00742802498DE0F98A828B83A3A3A3A0
:103EB300A3A3A3A3A3A3E022F582E43FF583E0F940
:103EC3008E828F83A3A3A3A3A3A3A3A3A3126AE2B4
:103ED30022126156122350740222F0EE125625E08C
:103EE3002274F21208EE74F8120EAC8A0A8B0B8C51
:103EF3000C8D0D890890BABDAC18AD197408120D5C
:103F030024C200AC0AAD0BAA18AB191260D370021D
:103F1300D20090183A8013AC0AAD0BEE240BFAE4EE
:103F23003FFB1260D3701B124B1C1247AF601EA2E3
:103F33000040E48E828F83E0650C7004A3E0650D7E
:103F430070E58E828F83A3A3E0650870DAEEFAEF43
:103F5300FB7408024472C082C08390183A0254CEA4
:103F6300C082C08390183AE4F0A30241BF74F712F1
:103F730008EE90183A1269D0800FEA2414F582E40F
:103F830012645C121702EEFAEFFBEA4B70EC901826
:103F93003AE4F0A3F002483274F21208EE8A0C8B72
:103FA3000DEDFF890B8A828B83E08C828D83F0A3D6
:103FB300A882A9838A828B831240641245E0E0C4FD
:103FC30054F0FA88828983E04AF0EC2402F8E43F53
:103FD300F9850C828B83A3A3124064124077E033EC
:103FE3003354FC12406BE033333354F812406BA369
:103FF300E0A2E0E4331313FA88828983E04AF0EC09
:104003002403FE50010FE50C2407F508E4350DF5F4
:1040130009750A007808120DFD7C087D00EEFAEFA1
:10402300125030120DDEEE2408FE50010FE50C2471
:104033000FF508E4350DF5097808120DFD7C037DB5
:1040430000EEFAEF125030120DDEE50BC3940F4071
:104053000DE50C2412F582E4350D125634F00244BA
:1040630075A3E08882898322FA88828983E04A12D1
:104073004077A322F0850C828B83A3A3A3A322748E
:10408300F21208EEEBFF8C0C8D0D8A82F583E08C27
:10409300828D83126AA1A3A882A983E012547912A4
:1040A300445BC4125473F0EA126AAB125480124494
:1040B30059A2E2E4338C828D8312445813131354B0
:1040C3001F125479A3124458A2E7E4338C828D83E0
:1040D300A3A3A3A3A3A3F0EA2403FE50010FF508AF
:1040E3008F09750A007808120DFD7C087D00E50C28
:1040F300240712502C120DDEEE2408FE50010FF59A
:10410300088F097808120DFD7C037D00E50C240F50
:1041130012502C120DDE8E828F83A3A3A3E0C0E086
:10412300126AC7D0E0F002447574F61208EEEAFE94
:10413300EBFF8A82F583A3858208858309E0F91260
:104143001F1E850882850983E064EB601E8E828FC3
:1041530083A3E064E160148E828F83A3E064F16043
:104163000A8E828F83A3E0641A70078E828F83A3E3
:10417300E4F09019DF1210CC12224275080178087E
:10418300120E058E828F83A3E0F5087808120E05C0
:1041930079009017EC125E539017E2123ED4120D81
:1041A300DE1222A2025841C082C083E990184C70EB
:1041B30003E4800274018004EAF0A3EBF00254D11B
:1041C300E0F90254D1126156121D982274F61208B6
:1041D300EE90184CE0701B7C0079017A007B001292
:1041E30022D2EA4B600C8A828B831262E260031252
:1041F3002236025841C082C08312468F401079FF95
:104203001222CCE9F8902EC1E493C39850047901AB
:10421300800279000254D174F21208EE8A0A8B0BE1
:104223008909C2008A828B83A3A3A3A3A3A3A3A305
:10423300E0F91222D88A0C8B0DAE0CAF0D75080174
:10424300EA4F60030242FB850A82850B83125E4DAF
:10425300850A82850B83A3A3A3A3A3A3A312443A32
:104263001222C08A0C8B0DAE0CAF0DEA4F70030205
:1042730044078A828B83A3A3A3A3E4F0A3F0E50AF4
:10428300240CFAE4350BFB8A82F583E0C0E0124488
:104293000ED0E0F0E50A240D12442E240D125D73B6
:1042A3001223BC124B3412629EE50A241112442ECF
:1042B3002411125D73E50A241312646EC0E0124BDD
:1042C30026D0E0F0D200EE2406F8E43FF9124421B0
:1042D30012445C5404600302436D9019F1E0F50A43
:1042E300750B007407780A120F8E8E828F83A3A337
:1042F300A3A3A3A3124418F08E828F83A3A3A3A323
:10430300A3A3E0F50AA3E0F50B7407780A12109251
:10431300E50A5407FCE50960618E828F83A3A3A39A
:10432300A3A3A3A3A3A37402124987124724600B78
:104333009017DA1250BAA3A3125D79EC700302430B
:10434300DEEE2406F8E43FF9E8FAE9124421F0EC42
:1043530024FFF50AE434FFF50B7407780A120F8E75
:104363008A828983124418F080718E828F83A3A37B
:10437300A3A3A3A3E044800242FAEC7005750800EE
:1043830080598E828F83A3A3A3A3A3A3E0542060A9
:104393000C121666EA547F7900245F80198E828F8F
:1043A30083A3A3A3A3A3A3E05410601A121666EA7F
:1043B300540F7900240A5001098E828F83A3A3A38B
:1043C300A3F0A3E9800D8E828F83A3A3A3A374011B
:1043D300F0A3E412446574041246A5A20050288E8B
:1043E300828F83A3A3A3A312615CF9EEFAEFFB12FE
:1043F30022C6E960121262DB6003124447EEFAEF51
:10440300FB121702750800A9088067EE240CF582D9
:10441300E43FF58322E0450AF0A3E0450B228882BE
:10442300F583E0547FF0A3E054FC22F582E4350BDE
:10443300F583126447EE22A3E0F9850A82850B8394
:104443001261562212444E1248A422EE240FF58222
:10445300E43FF58322A3A3A3A31244602212648A38
:10446300E0221244692212497DA3A3A322740312FA
:104473000DDE7F06020B6174F41208EE74F7120E60
:10448300AC7E001222D8EA4B700302452D8A828B40
:1044930083A3A3A3A3A3A3A3A3A3E064066003022C
:1044A300452D8A828B83A3A3A3A3A3A3A3E0FF8A9F
:1044B300828B83126A69E0C0E07408121107D0E0AE
:1044C300124855125D66125D791222EAEF540860B4
:1044D30057851882851983125E537A007B00122256
:1044E300BAEA4B7043126AD27C007D007A007B00EB
:1044F30080228E828F8312535FF47003A3E0F460F3
:10450300279017EC124532124837601C7C007D005F
:10451300EEFAEFFB1222BA8A0A8B0BAE0AAF0BEE4E
:104523004F70CF7900121DB67E01EEF902370E12DD
:10453300453622E0FCA3E0FD8E828F8322C082C039
:10454300838A828B83E582458370099018518006A4
:104553008A828B83A3A312475860208A828B83A30A
:10456300A3A3A3A3A3A3E0540860E5EC4D6010123A
:10457300475E7003A3E06D70D780047A007B00026E
:1045830054D174F21208EE8A088B09890AECFEED05
:10459300FF7A147B001216FCEA4B60378A828B8306
:1045A300A3A3A3A3A3A3A3A3A3E41245F6E50A121B
:1045B3004841EEF0A3EF1245E612485C1245ED8A3E
:1045C300828B83126AEA1245D91261D9A31245E09C
:1045D300F0A3F0024475EA240FF582E422126AA5DF
:1045E300A3A322124847E4F0A322A3F0126A6212A3
:1045F30061D9221245FA2212484BA3A3A3A3227422
:10460300F51208EEEAFEEBFF890A8C088D09EA4FE2
:104613006075740169701279011222CCE9F8902E49
:10462300C3E493C3985015800A7404697009124651
:104633008F500979118052740269704B8E828F8377
:10464300A3A3A3A3A3A3A3A3A3E50A12469E124D68
:1046530074126363A3E4F0A3F09018511262E26052
:1046630018800312644388828983A3A3124758885E
:10467300828983A3A370EC8003901851EEF0A3EF1B
:104683001246A57900800279C10249907904122269
:10469300CCE9F8902EC2E493C39822126367A3A3D4
:1046A300A322F07A207B00901839E0F91216AE228B
:1046B300C082C083E9F87900901851801D8A828BEB
:1046C30083A3A3A3A3A3A3A3A3A3E068600574FF89
:1046D300687001098A828B83A3A312475870DE0294
:1046E30054D174F71208EEEA4B7005901851800606
:1046F3008A828B83A3A3124758601F8A828B83A36A
:10470300A3A3A3A3A3A3A3A3E06970E4EC600F8A0C
:10471300828B8312472470D880047A007B0002487E
:1047230032126A82E0540422C082C08390185180FE
:10473300068A828B83A3A312475860128A828B83D3
:10474300A3A3A3A3A3A3A3A3E06970E580047A00B2
:104753007B000254D1126156EA4B228A828B831268
:1047630053636C2274F21208EE8A0A8B0B8C0C8D45
:104773000D750800750900EA4B602A9018518006F0
:104783008E828F83A3A31247AF601AAC0CAD0DEEDC
:10479300FAEFFB850A82850B831228B3E964017063
:1047A300DF8E088F09AA08AB09024475E0FEA3E077
:1047B300FFEE4F2274F71208EE9018511264437CF7
:1047C300007D00800DE8FCE9FD88828983A3A312A4
:1047D3006443E8496030EA687002EB6970E7901857
:1047E30051126152E86A7002E96B88828983A3A33C
:1047F300700812644390185180091264438C828DAF
:1048030083A3A3125D79802774F71208EEEAFEEB07
:10481300FFEA4F60151222E41248901262DB600334
:10482300124447EEFAEFFB1217028003120DDE7FEC
:1048330001020B61126156121DAAE9641A22124881
:1048430047A3A32212484B22F08A828B83A3A3A3FC
:10485300A322126AA5125363221245FAA32274F605
:104863001208EE90185112645F801412647C12488F
:1048730090124447EEFAEFFB121702AE08AF09EEAF
:104883004F70E8901851E4F0A3F00258418E828FE4
:1048930083126A56F5831248A48E828F831248A42A
:1048A30022E0FAA3E0FB12170222C082C083EAFCD3
:1048B300EBFDEA4D6017EA24FBF582EB34FF12624D
:1048C300E07007124902E0F460071216727905805E
:1048D3002B901839E0C0E0124902D0E0F0902EBAD4
:1048E300E493F97A537B181216A8E96401700B7AE2
:1048F300007B201249117900800279040254D1EA25
:1049030024FFF582EB34FFF583227A207B00901895
:1049130039E0F91216AE2274F41208EEA2AFE433B2
:10492300F508C2AF9018531247AF6038EE24FBF579
:1049330082EF34FF1262E07A007B20901839600521
:104943001249148005E0F91216B4E4F50AF50B7860
:104953000A120E01EEFCEFFD7A537B181216A274B5
:1049630002120DDEE508A2E092AFEEFAEFFB02378A
:1049730013124979E02212497D22124987A3A3A386
:10498300A3A3A322F08E828F8322120DDE7F030264
:104993000B6174F21208EE74FA120EACEAFEEBFF2E
:1049A3007508FE7509FF1222A8E960057911024B0B
:1049B30017125037603C901A0BE0C43354E0F8E010
:1049C300333354FC48C0E0EE125A463FF583D0E03F
:1049D30012649EFAA3E0FB79FF12206EEA4B601289
:1049E3007508FFEE240F12503A4404F0125037D2E8
:1049F300E0F08E828F83124B506006EE2412126415
:104A0300B6EE241312503A700D902EC5E493C0E015
:104A1300124B26D0E0F08E828F83E0A2E75004543D
:104A2300038019EE241412503A70129017CBE0C091
:104A3300E0124B1CD0E0F09017CBE004F0EE241111
:104A430012503A640170169019F5E0600D9017D674
:104A5300E0700A8E828F83E070031264B38E828FBC
:104A630083E064017013EE240B125359640270093E
:104A7300EE240F12503A4440F0AC18AD19EEFAEFA1
:104A8300FB1223148A0A8B0B74FE6508700374FFF0
:104A9300F4700312647CEA4B60768E828F83E0C0ED
:104AA300E07401121107D0E0F07404121107EEF064
:104AB300A3EFF0EE241E12643D7402121107125D7F
:104AC300797401120E7C880C890D780C120E01EE9C
:104AD3002420124B39120E05124B34120C30EE24E3
:104AE3000E124B39120E059017DF120C3074081298
:104AF3001107E0F9AC08AD0912230E7408120DDE9C
:104B0300E9FE74106E700BAA0AAB0B121702800237
:104B13007E10EEF97406024472EE2414F582E43F2B
:104B2300F58322EE124B2B222413F582E43FF58307
:104B330022EE12444F22F582E43FF583E0F50C7830
:104B43000C228E828F83A3A3A3A3A3A3A3A3A31245
:104B53004B5622E0FAA3E0FB1223B6E922C082C03F
:104B63008374D7120EAC90B9AA7403120E8C7426F8
:104B7300120D248A828B83A3A3A3A3126443740E0E
:104B83001211071262E8126443740C121107124CDB
:104B930059240D124C49C0E0741A121107D0E0F0E9
:104BA3001261DF1264417420121107124C5924154B
:104BB300124C49C0E07408121107D0E0F0EA241C3B
:104BC300F582E43B1264417412121107124C59240A
:104BD30011124C49C0E07409121107D0E0F0EA2425
:104BE30012124C49C0E07407121107D0E0F0EA2416
:104BF3001EF582E43B1264417424121107124C59CE
:104C03002420124C49C0E07426121107D0E0124C44
:104C13005174FFF0740112110774FFF07402121142
:104C23000774FFF090BB50120C2C7404120E8C749A
:104C330007120E84121EF47404120DDE7900742917
:104C4300120DDE0254D1F582E43BF583E022F085B8
:104C5300188285198322E8F0A3E9F0EA2274F4129A
:104C630008EE74EC120EAC8A0A8B0B8C088D09E9E2
:104C7300FF7E107A217B001216FC8518828519832A
:104C8300EAF0A3EB1262F2E8497003024D6D7C2156
:104C93007D007900851882851983E0FA12165A90EF
:104CA30017EC126152851882851983125E57240905
:104CB300F582E438F58312629E74201211071264A0
:104CC300437411121107E81253C81262A438F58312
:104CD30074021253CB126A7074021253B5124D74DC
:104CE3001253CB126A4DEFF074221211071253764E
:104CF300F9A3E0C912674739F583E812508BA3E0A3
:104D0300C9241FF582E439124D7B74231211071253
:104D13006152740612110712629E7408121107E899
:104D2300F07426121107126278C082C083740C12C9
:104D33001107AC82AD83D083D0827405120D247425
:104D430025121107E0C0E07413121107D0E0F079C7
:104D530000AA18AB191222AEE9640170047E008028
:104D63000985188285198312444AEEF974140237AF
:104D730010E508F0A3E50922F583E50AF0A3E50BA6
:104D8300F02274F01208EE74FF120EACEAFEEBFF91
:104D93008C088D098A82F583A37408F0EA2416121D
:104DA300503A60088A828B83A37410F0EA241712A6
:104DB300503A60098A828B83A3E02408F0EA1250F8
:104DC3003860088A828B83A3E004F08A828B83A3F2
:104DD300A3A3A3A3A3E060198A828B83A3A3A3A3A2
:104DE300A3A3A3E0C3332402F88A828B83A3E0281E
:104DF300F0EA24111250426004740E8001E4F09032
:104E03001A03E0640170168A828B83E06401600DEB
:104E1300901758E060071250227401800412502248
:104E2300E412508B8A828B83A3E0F8EA1232D528EE
:104E3300298C828D83F0EA241112503A60051256B0
:104E43006329F0850882850983E0C3947540097559
:104E53000C00750D00025019E0FA7B001216FC8A53
:104E63000C8B0DEA4B70030250198E828F83E0FA8C
:104E73009017DC12508474027808120F8EEA4508EA
:104E8300FAAB09EE241212507E74067808120F8EC4
:104E9300A808EA48FCEBFD12503760047801800251
:104EA3007800EE2416FAE43FFBE4C8F9ED49FDEE81
:104EB300241112503AF508880974097808120F8EE4
:104EC300ED4509FD8A828B83125084740B78081296
:104ED3000F8EED4509FDEE241712507E740C7808F1
:104EE300120F8EED4509FD8E828F83A3A3A3A3A387
:104EF300A3125084740A7808120F8EED4509FDEE53
:104F0300242312507E740D7808120F8EED4509F993
:104F1300EC850C82850D83F0E9A3F0EE2402125098
:104F2300611250A0F0EE2404125061A3A31250A00A
:104F3300A3A3F0EE2413125071F0EE241412507157
:104F4300A3F0750B088A828B83E0601512635412F9
:104F53005E53E50C2408FAE4350DFB1217EC750BD0
:104F630010EE241712503A6019125ED6125E53A83F
:104F73000BE50C28FAE4350DFB1217EC7408250B2E
:104F8300F50B8E828F83A3A3A3A3A3A3E0604EEEAE
:104F93002407F50EE43FF50F850E82F583E0C0E0AC
:104FA300125050D0E0125090E0C0E008125052D09E
:104FB300E0125090A31262CE120DFD850E82850F72
:104FC30083E012532AA80BE50C2812502C120DDE95
:104FD300850E82850F83E0C333250BF50B12503703
:104FE3006008C0E0125050D0E0F01256201262CE9A
:104FF300120DFD1232D4FC7D0074031211071250FE
:1050030059E0F8E50C28F8E4350DF9E82AFAE43913
:10501300125030120DDEAA0CAB0D74010262B7EA16
:105023002423F582E43FF58322FAE4350DFB1216BF
:105033004E740322EE2415F582E43FF583E022F556
:1050430082E43FF583E085188285198322A80BE566
:105053000C2812533D22E0FA8E828F83A322F8E4B8
:105063003FF98882F583E0850C82850D8322F582E2
:10507300E43FF5831250AAA3A3A322F582E43FF5EC
:1050830083E0F50875090022126A93F922F0050BF3
:105093008E828F83A3A3A3A3A3A3A3A322A3A31259
:1050A300648AA31250AA22E0850C82850D83A3A3F0
:1050B300A32274030237101264478E828F83A3A343
:1050C3002274F01208EE74FD120EAC126298740290
:1050D300121107E9F08C0C8D0D750B017C267D00F8
:1050E3007900AA0CAB0D12165A7402121107E0C311
:1050F300940850030252B3125069F0AC0CAD0D8505
:10510300188285198312535FFA85188285198312D1
:10511300598512565CE96003750B00851882851961
:1051230083126278125380E0F9EA850C82850D833D
:10513300A3A3A3A3A3A3A3A3A3F0A3E91253B5A378
:10514300A3125380A3A3E0F9E50C1262F7EA12530A
:10515300C8125E43C0E0E50C2411126ACBD0E01202
:1051630053CB2407F582E438F583E0C0E0126AC725
:10517300D0E012628B74081253ACA3E0602685184A
:1051830082851983E02408F8A3E03400F9E50C24B0
:1051930013F582E4350D125D77850C82850D83A3AB
:1051A300E02408F0850C82850D83A3A3A3A3A3A306
:1051B300A3A3E0602A850C82850D83A385820E85D7
:1051C300830F12536DF8A3E03400F9E50C125A462D
:1051D300350D125D77850E82850F83E02408F0126A
:1051E3005331E4F0125345E4F0A312628BA3A3A35B
:1051F300A3E06011125391850C82850D83A3A3A3B1
:10520300A3A31253BDE50C125352E0700302529F45
:10521300125391FA125331EA1253BDF8851882855D
:105223001983E028FBA3E034008B82F583E0F8E5E3
:105233000C241A126ACBE81253BDE8C39AE50C504A
:105243005612534DF8902EBBE493C39850047E0C32
:105253008006E50C12534DFE850C82850D83125397
:105263006CF508A3E03400F509750A007808120DFF
:10527300FDEE12532A7A217B0D125031120DDE12EC
:1052830053457421F0A3740DF0EEC333F8850E82F9
:10529300850F83E0288004125352E4F0850C828545
:1052A3000D83A3E0F8850C82850D83E0C398500439
:1052B3007900807012536CFAA3E03400FBE50C1202
:1052C30064AD126ACE12629E850C82850D83E0C3A3
:1052D30098C0E0E50C2417126ACBD0E01253ACE07F
:1052E3006040E50C2417FEE4350DFF8E82F583E064
:1052F30024F2F0E50C241DF8E4350DF98882F583DA
:10530300E0240EFAA3E03400FB8882898312629EB4
:105313009017D7E0F9122206E9F88E828F83E0C353
:1053230098F0A90B0262B525E0FCE433FD22E50CFD
:1053330012533722241912533D22F582E4350DF519
:105343008322E50C241B12533D22125337E0221211
:10535300628512534022F582E43FF58312536322A0
:1053630012644CF5838882E022A3125371221253F4
:10537300762822E0F8851882851983E022A3A3E02A
:10538300FA85188285198312627EA3A3A322850C52
:1053930082850D83A385820E85830F125371FAA331
:1053A300E034008A82F583E02212628FA3A3A3A3D1
:1053B300A3221253D0F583888222F0850E82850FB3
:1053C30083E004F022F0A3E91253D0C822126A97B3
:1053D300F8A3E02274F41208EE8A088B09EA125447
:1053E30080A3A3F0EA1313543F125473A3F0EAC447
:1053F300131312548012548A7409780A12109212E9
:10540300546AA3A3A3A3A3A3F0EB12546C1254896D
:10541300740A780A121092E50A5401C0E0EC126291
:10542300853DF583D0E012548E740B780A121092E6
:1054330012546A125487740C780A12109212546A26
:10544300A3125487740D780A121092E50A5401C00E
:10545300E0EC2424F582E43DF583D0E0F0740E788B
:10546300081210920236FFE50A54018C828D8322C2
:10547300125479A3A322540F8C828D832254038C5C
:10548300828D8322A3A3A3A3A3A3A3F08A0A8B0BD6
:1054930022C082C08379008A828B83A3A3A3A3A3A0
:1054A300A3E09017D6600EE0701F8A828B83A3A3BC
:1054B300E070168012E060111261459017DFE06A18
:1054C3007003A3E06B600279018003126152D08301
:1054D300D082020DA874F21208EE8A0A8B0B890C93
:1054E300ECFEEDFF8A828B83E0FA12565C850A821A
:1054F300850B83A3A3125650E0F9EA8E828F83A310
:10550300A3A3A3A3A3A3A3A3125675125650A3A3A5
:10551300E0F9125620EA125675A3A3E0C0E0EE2488
:1055230011F582E43FF583D0E012567CA3A3A3E0F8
:10553300C0E0EE2412F582E43FF583D0E01263630A
:10554300740812469EA3A3A3E06017E50A2408F893
:10555300E4350BF9124B26E8F0A3E9126363E02468
:1055630008F08E828F83A3A3A3A3A3A3A3A3E060C6
:10557300188E828F83A312563FEE2415125D738516
:105583000882850983E02408F08E828F83A3A3A376
:10559300A3A3E060248E828F83A385820885830979
:1055A300E0F8E50A28F582E4350B125634A3A3F09C
:1055B300850882850983E004F0EEFAEFFB122326C7
:1055C300E9F50D70498E828F83A3A3A3A3A3A3122E
:1055D300562EA37014E0F8E50A28FAE4350BFB1203
:1055E300561612629EE50C801A12563FE8240EF8F6
:1055F300500109EE241D125D73125663F9E50CC3C5
:105603009924F2C398C0E0EE125ECDD0E0F0A90D6C
:10561300024475EE241DF582E43FF58322EE125613
:105623002522240BF582E43FF58322E08E828F83CB
:1056330022F583E08E828F83A3A3A322858208852C
:105643008309E0F8E50A28F8E4350BF922E0FA8546
:105653000A82850B83A3A3A3221264BF12232022F1
:105663009017D7E0F9122206E9F8850882850983A5
:10567300E022F0A3E912567C22F0850A82850B838F
:10568300A3A3A3A322C082C0837A5F7B1879E2120B
:105693001D7A7A5F7B180254D1C082C0839017DFD2
:1056A3000254CEC082C0839017E20254CEC082C09F
:1056B30083794A121D7A0254D174F61208EE9018B7
:1056C30067E0FE04F0EEF91222D8EA4B70F0EE60C8
:1056D300EDF902584174F21208EEEAFEEBFF8C0872
:1056E3008D09890A12241C740E121107E0F9740F34
:1056F300121107E0F8EA4B7012E8701BA90AAC0814
:10570300AD09EEFAEFFB12243A8065E86017E97001
:10571300068A828B83E4F07401687054E990186AF6
:105723007024E4801EE97048EA2402124C49A80A56
:1057330028F8E4340013E813F070358A828B83A3CE
:10574300A37401F0802AE004F09019F2E0F89018B5
:105753006AE0C398401AE4F09017E2E06E7003A386
:10576300E06F700CEEFAEFFB7901121F18125776F7
:105773000244757A017B00901839E0F91217C222AE
:1057830074F41208EE8A088B098C0A8D0B90BB1CEB
:105793007808120ED870077A0112490F801E9019EB
:1057A300DF78081210A1EA4B4C4D600D7808120DFA
:1057B300F91234AE120DDE8003125776023713C08E
:1057C30082C0839019E30241BBC082C0839019E574
:1057D3000241BB74F61208EE7E007508CB750917FB
:1057E3007808120E017C6E7D007A217B00121774FB
:1057F3007402120DDEE9640A70027E01121E76E95C
:10580300640A7004EED2E1FE9004361262E2600F85
:105813001259861228B3E9640A7004EED2E3FE1229
:105823002092E9640A7004EED2E4FE121CFCE964DF
:105833000A7004EED2E5FEEEF98003120DDE7F025C
:10584300020B6174F61208EE1216127508CB750975
:10585300177808120E0175086E7509007808120E84
:1058630001125883120DDE121E7C9004381262E27C
:1058730060061259861228B3122098121D0E80BE9C
:105883007C007D007A217B0012178074042274F659
:105893001208EE74FF120EAC7E007508CB75091763
:1058A3007808120E017C6E7D007A217B001217743A
:1058B3007402120DDEE9600302595D7808120E01CD
:1058C30075086E8E097808120E017C007D007A211E
:1058D3007B001217867404120DDEE9707D9017DFCA
:1058E300E064FE7003A3E0F460707E019017EEE0C5
:1058F30064086005E06404705C851882851983EE92
:1059030012599D7AF67B177943121D807AF37B1720
:105913007947121D807AE47B17794A1259787AEC19
:105923007B177950121D807ADF7B177953121D8004
:105933007AF47B177954121D807AE17B1779E1128F
:105943001D809017D9E0A2E35004D2F08002C2F088
:1059530012598A80051216127E00121E6A90043AAA
:105963001262E260061259861228B31220A4EEF9DD
:10597300740102583E121D807AE27B17794B121D87
:105983008022A312627F22A2F0E433851882851954
:10599300831259FC7952121D80221259FC7942124A
:1059A3001D802274F61208EEE9FEA2E0501C750871
:1059B300CB7509177808120E0175086E7509007802
:1059C30008120E01125883120DDEEEA2E3500312E9
:1059D3001E70EEA2E2500E90043C1262E2600612C8
:1059E30059861228B302584112228A7A3C7B1879CD
:1059F30045121D80221259FC22F0AA18AB192274F9
:105A0300F71208EE74ED120EACE9FE901838F0AC04
:105A130018AD19125A2E7412121107EE125A3BAA1C
:105A230018AB191259EB741302482F901A25E0F999
:105A33007A3C7B1812229022F0901A25E0F97C3CE4
:105A43007D18222415F582E422126A633509F58351
:105A530022EFFB901839E0F912167822EE24161281
:105A63005A6622F582E43FF5837401F022126A62DA
:105A73003FF583125A7A2212644CF98882F5832205
:105A830074F41208EE8A088B097A007B0412577AA1
:105A9300125B259017EE7409F01260C7123B7F1258
:105AA30061521260D3640170677A0F7B0012166C27
:105AB3008A0A8B0BAF0BEA4F60568A828B83740280
:105AC300F0E5081264AD35091264CBFC8882898342
:105AD300A3A3E0FBEC8A828F83A3A312629F888235
:105AE3008983A3A3A3E08A828F83125B16FAA3E0C0
:105AF300FB794A121D80850882850983A3A3A3A38A
:105B0300A3A3E070069016677405F0AA0A125A540C
:105B1300023713A3F0E5082415F582E43509F5836C
:105B2300E0229017741264479019E5E8F0A3E9F0B6
